{
  "contractName": "Wikipedia",
  "abi": [
    {
      "inputs": [],
      "payable": false,
      "stateMutability": "nonpayable",
      "type": "constructor"
    },
    {
      "constant": true,
      "inputs": [
        {
          "internalType": "uint256",
          "name": "",
          "type": "uint256"
        }
      ],
      "name": "articlesById",
      "outputs": [
        {
          "internalType": "uint256",
          "name": "id",
          "type": "uint256"
        },
        {
          "internalType": "string",
          "name": "content",
          "type": "string"
        }
      ],
      "payable": false,
      "stateMutability": "view",
      "type": "function"
    },
    {
      "constant": true,
      "inputs": [
        {
          "internalType": "uint256",
          "name": "",
          "type": "uint256"
        }
      ],
      "name": "ids",
      "outputs": [
        {
          "internalType": "uint256",
          "name": "",
          "type": "uint256"
        }
      ],
      "payable": false,
      "stateMutability": "view",
      "type": "function"
    },
    {
      "constant": true,
      "inputs": [],
      "name": "nbArt",
      "outputs": [
        {
          "internalType": "uint256",
          "name": "",
          "type": "uint256"
        }
      ],
      "payable": false,
      "stateMutability": "view",
      "type": "function"
    },
    {
      "constant": true,
      "inputs": [
        {
          "internalType": "uint256",
          "name": "index",
          "type": "uint256"
        }
      ],
      "name": "articleContent",
      "outputs": [
        {
          "internalType": "string",
          "name": "",
          "type": "string"
        }
      ],
      "payable": false,
      "stateMutability": "view",
      "type": "function"
    },
    {
      "constant": true,
      "inputs": [],
      "name": "getAllIds",
      "outputs": [
        {
          "internalType": "uint256[]",
          "name": "",
          "type": "uint256[]"
        }
      ],
      "payable": false,
      "stateMutability": "view",
      "type": "function"
    },
    {
      "constant": false,
      "inputs": [
        {
          "internalType": "string",
          "name": "cont",
          "type": "string"
        }
      ],
      "name": "addArticle",
      "outputs": [],
      "payable": false,
      "stateMutability": "nonpayable",
      "type": "function"
    }
  ],
  "bytecode": "0x60806040526000805534801561001457600080fd5b506000809050600181908060018154018082558091505090600182039060005260206000200160009091929091909150555061004e6100c2565b60405180604001604052808381526020016040518060600160405280602b81526020016107fc602b9139815250905080600260008481526020019081526020016000206000820151816000015560208201518160010190805190602001906100b79291906100dc565b509050505050610181565b604051806040016040528060008152602001606081525090565b828054600181600116156101000203166002900490600052602060002090601f016020900481019282601f1061011d57805160ff191683800117855561014b565b8280016001018555821561014b579182015b8281111561014a57825182559160200191906001019061012f565b5b509050610158919061015c565b5090565b61017e91905b8082111561017a576000816000905550600101610162565b5090565b90565b61066c806101906000396000f3fe608060405234801561001057600080fd5b50600436106100625760003560e01c806302207107146100675780630ad062801461010e5780630c971a46146101bc57806358d8627914610277578063aaa44e5c14610295578063fac333ac146102f4575b600080fd5b6100936004803603602081101561007d57600080fd5b8101908080359060200190929190505050610336565b6040518080602001828103825283818151815260200191508051906020019080838360005b838110156100d35780820151818401526020810190506100b8565b50505050905090810190601f1680156101005780820380516001836020036101000a031916815260200191505b509250505060405180910390f35b61013a6004803603602081101561012457600080fd5b81019080803590602001909291905050506103ee565b6040518083815260200180602001828103825283818151815260200191508051906020019080838360005b83811015610180578082015181840152602081019050610165565b50505050905090810190601f1680156101ad5780820380516001836020036101000a031916815260200191505b50935050505060405180910390f35b610275600480360360208110156101d257600080fd5b81019080803590602001906401000000008111156101ef57600080fd5b82018360208201111561020157600080fd5b8035906020019184600183028401116401000000008311171561022357600080fd5b91908080601f016020809104026020016040519081016040528093929190818152602001838380828437600081840152601f19601f8201169050808301925050505050505091929192905050506104aa565b005b61027f610513565b6040518082815260200191505060405180910390f35b61029d610519565b6040518080602001828103825283818151815260200191508051906020019060200280838360005b838110156102e05780820151818401526020810190506102c5565b505050509050019250505060405180910390f35b6103206004803603602081101561030a57600080fd5b8101908080359060200190929190505050610571565b6040518082815260200191505060405180910390f35b6060600260008381526020019081526020016000206001018054600181600116156101000203166002900480601f0160208091040260200160405190810160405280929190818152602001828054600181600116156101000203166002900480156103e25780601f106103b7576101008083540402835291602001916103e2565b820191906000526020600020905b8154815290600101906020018083116103c557829003601f168201915b50505050509050919050565b6002602052806000526040600020600091509050806000015490806001018054600181600116156101000203166002900480601f0160208091040260200160405190810160405280929190818152602001828054600181600116156101000203166002900480156104a05780601f10610475576101008083540402835291602001916104a0565b820191906000526020600020905b81548152906001019060200180831161048357829003601f168201915b5050505050905082565b60008081548092919060010191905055506040518060400160405280600054815260200182815250600260008054815260200190815260200160002060008201518160000155602082015181600101908051906020019061050c929190610592565b5090505050565b60005481565b6060600180548060200260200160405190810160405280929190818152602001828054801561056757602002820191906000526020600020905b815481526020019060010190808311610553575b5050505050905090565b6001818154811061057e57fe5b906000526020600020016000915090505481565b828054600181600116156101000203166002900490600052602060002090601f016020900481019282601f106105d357805160ff1916838001178555610601565b82800160010185558215610601579182015b828111156106005782518255916020019190600101906105e5565b5b50905061060e9190610612565b5090565b61063491905b80821115610630576000816000905550600101610618565b5090565b9056fea265627a7a72315820117625a792cb8eae334b21199ec6bcdb317bdf60c154cc41043abe78b22e807264736f6c634300051000325468697320697320796f75722066697273742061727469636c6520696e20796f757220636f6e7472616374",
  "source": "pragma solidity ^0.5.0;\r\n\r\ncontract Wikipedia {\r\n  uint public  nbArt = 0 ;\r\n  struct Article {\r\n    uint id;\r\n    string content;\r\n  }\r\n\r\n  uint[] public ids;\r\n  mapping (uint => Article) public articlesById;\r\n\r\n  constructor () public {\r\n    uint index = 0;\r\n    ids.push(index);\r\n    Article memory newArticle = Article(index,\"This is your first article in your contract\");\r\n    articlesById[index] = newArticle;\r\n    \r\n  }\r\n\r\n  function articleContent(uint index) public view returns (string memory) {\r\n    return articlesById[index].content;\r\n  }\r\n\r\n  function getAllIds() public view returns (uint[] memory) {\r\n    return ids;\r\n  }\r\n\r\n  function addArticle(string memory cont ) public {\r\n      nbArt ++ ;\r\n      articlesById[nbArt] = Article(nbArt,cont);\r\n  }\r\n}\r\n ",
  "sourcePath": "C:/Users/hnouari/Documents/decentralized-wikipedia/contracts/Wikipedia.sol",
  "compiler": {
    "name": "solc",
    "version": "0.5.16+commit.9c3226ce.Emscripten.clang"
  },
  "schemaVersion": "3.3.2",
  "updatedAt": "2020-12-05T23:47:33.224Z",
  "devdoc": {
    "methods": {}
  },
  "userdoc": {
    "methods": {}
  }
}